S0130000484155545F43544C4F434B2E73726563C0
S1130000F8210020911600008D1600008D160000C6
S113001000000000000000000000000000000000DC
S11300200000000000000000000000008D16000029
S113003000000000000000008D1600008D16000076
S11300408D1600008D160000C50600001502000084
S1130050AD0F00008D1600008D160000010F00008A
S1130060110F0000210F0000310F0000410F0000AC
S1130070510F00004506000055060000650600000B
S1130080750600008506000095060000A506000020
S1130090B50600008D1600008D1600008D160000B8
S11300A08D16000010B5064C2378002B07D1054BA4
S11300B0002B02D0044800E000BF0123237010BDD0
S11300C04C00002000000000B4220000084B10B5D2
S11300D0002B03D00749084800E000BF0748036825
S11300E0002B00D110BD064B002BFBD09847F9E73D
S11300F00000000050000020B4220000B4220000E0
S113010000000000044A137802210B431370537853
S11301105BB2002BFBDB70470018004000B583B0D6
S1130120124A936940210B43936101A900230B7088
S113013003200F4B984703200E4B98470E4A137821
S113014001210B43137053785BB2002BFBDB0B4B89
S113015019004031002204C39942FCD11022084BFB
S11301601A60084B984703B000BDC0460004004025
S113017035150000A914000000180040A400002058
S113018000E100E005010000002303604360012258
S11301900272427283720233C3727047F0B583B045
S11301A005000C0001A900234B70CB7023790B7060
S11301B0237A8B702078154B984700201F2D00D888
S11301C0134807222A409200E77AA37A002B01D031
S11301D008231F43EB089B00C31899690F26964018
S11301E0B14397403A000A439A61637A002B06D1DF
S11301F043690122AA409343436103B0F0BD4269BD
S11302000123AB4013434361F7E7C0462D160000BA
S11302100018004010B5144B1A681468D18A938AE8
S11302201940207AE379034058B2002806DBD80746
S11302300FD5CB070AD40123237210BD4B0702D478
S113024080232372F9E713699847F9E7936898477D
S1130250F1E79B07F1D58B0702D402232372ECE765
S1130260D3689847F9E7C046E4000020F0B5DE46BD
S113027057464E464546E0B587B080460491160081
S11302801F000022002300218B463F24012021006F
S1130290009601975C4603944446059413E0202499
S11302A0641A0500E540A84614E0009C019D121B59
S11302B0AB415C464D462C43A346039C45462C4328
S11302C00394013925D3202464420C19E7D4050092
S11302D0A540A84604008C40A14692185B41140036
S11302E01D00059E4F463E40B446049E47463E4090
S11302F0B246664657463E4303D0060026433200C4
S11303002B00009C019D9D42DBD8CED19442D8D8CD
S1130310CBE7039B5846190007B03CBC904699466E
S1130320A246AB46F0BD10B54908402300248142E3
S113033002D2180010BD1C00091A631C9BB288422B
S1130340F9D94023FF2CF4D814800023F1E70000EE
S1130350F0B583B00F00160008AA117804004C43CE
S11303604022BC4202D9100003B0F0BD002B14D1CE
S1130370020008000021194CA04701003A000023A4
S11303800020174CA04700220123121A8B41120CA3
S11303901B041A4332800022E5E70022012BF9D125
S11303A00A00002300210D4CA04702000B0000921C
S11303B00193380000210A4CA047050080239B01CB
S11303C040229842CFD8790FF800009A019BA047A9
S11303D0EA00821AD2B252032A43DBE799200000D2
S11303E06D02000010B582B004000E4B1B78002B88
S11303F007D0002905D10B4B5B78834210D01D2018
S11304000CE001A90C700C20074B98470C20074BFB
S11304109847044B5C7001221A70002002B010BD92
S11304200020FBE76800002035150000A914000037
S1130430404B984231D00AD93F4B98424DD03F4B64
S113044098425AD03E4B984237D0002070473D4BDB
S113045098420CD03C4B9842F7D1012917D000297F
S11304605DD0022915D0032915D00020EEE701291B
S113047007D0002951D0022905D0032905D0002036
S1130480E4E73248E2E73248E0E73248DEE7324860
S1130490DCE73248DAE73248D8E7012907D00029F7
S11304A03FD0022905D0032905D00020CEE72D48EE
S11304B0CCE72D48CAE72D48C8E7012907D0002911
S11304C031D0022905D0032905D00020BEE72848F1
S11304D0BCE72848BAE72848B8E7012907D000292B
S11304E023D0022905D0032905D00020AEE72348F4
S11304F0ACE72348AAE72348A8E7012907D0002945
S113050015D0022905D0032905D000209EE71E48F6
S11305109CE71E489AE71E4898E71E4896E7032082
S113052094E71D4892E71D4890E71D488EE71D4853
S11305308CE7C0460010004200180042001C004234
S11305400014004200080042000C004203000500B1
S113055003000600030007000300010003001E005F
S113056003001F000300090003000A0003000B003E
S113057003001100030012000300130003000D0028
S113058003000E0003000F0003001700030018000F
S11305900300190003000400030008000300100016
S11305A003000C000300160030B587B00B4B6A46FD
S11305B032CB32C232CB32C2009B83420BD00123F6
S11305C09A0069465258824206D00133062BF7D16D
S11305D0002007B030BD0023D8B2FAE7482100005C
S11305E070B58000164BC45823689D7B227E637EC1
S11305F013401D40EB0706D4AB070BD4EB0610D415
S1130600AB0615D470BD2000A36898470123226867
S11306109373F1E72000E3689847022322689373F9
S1130620ECE7200023699847102322689373E7E7D7
S1130630200063699847236820229A73E2E7C04642
S1130640E800002010B50020014B984710BDC046BB
S1130650E105000010B50120014B984710BDC046CC
S1130660E105000010B50220014B984710BDC046BB
S1130670E105000010B50320014B984710BDC046AA
S1130680E105000010B50420014B984710BDC04699
S1130690E105000010B50520014B984710BDC04688
S11306A0E105000010B50620014B984710BDC04677
S11306B0E105000010B50720014B984710BDC04666
S11306C0E105000010B50122034B9A71034B1B682E
S11306D0002B00D0984710BD0010004008010020F6
S11306E000B583B001A901234B7000228A700B70FE
S11306F02B20044B984780221201034B5A6103B00C
S113070000BDC0466D100000804400410022054B2E
S11307101A70054B8022D2015A61802212025A615A
S11307207047C0466A0000200044004170B582B0A2
S113073001AC0023237001266670A37021000C20F5
S11307400C4DA84721000F20A84721000E20A847E0
S1130750267021000D20A84721000E20A847210063
S11307600F20A84780229201034B9A61034B9847BC
S113077002B070BD6D100000004400410D07000080
S11307800122054B1A70054B8022D2015A61802246
S113079012029A617047C0466A000020004400417A
S11307A0002804D18022D200034B5A617047802272
S11307B0D200014B9A61F9E780440041002804D13A
S11307C080221201034B5A61704780221201014BAF
S11307D09A61F9E700440041002804D18022D20044
S11307E0034B5A6170478022D200014B9A61F9E7AA
S11307F00044004110B50400054B98472000054B08
S113080098472000044B9847DC20044B984710BDC0
S1130810A1070000BD070000D90700004110000037
S113082070B5A4B018AB8022D205189200225A6089
S1130830FF2119819A72DA72FE39197559759A7500
S1130840DA759A611A775A77E12252021A61802284
S11308505203DA602F4A1A622F4A5A620122524224
S11308609A62DA622D4D2E4C18AA2E492800A04710
S11308700028F9D1294D2C6820002B4B98471F23C1
S113088018401E3B8340294A13602A68138A1BB20E
S1130890002BFBDB236802221343236017AC0123E4
S11308A063700022A270237021002A20204DA847E3
S11308B08022D2001F4B9A6121000B20A8472100FF
S11308C00A20A84701201C4B98470EA91B4B0A007D
S11308D031CB31C231CB31C231CB31C2184E24229B
S11308E03000184DA8470A20174CA0473122174959
S11308F001A8174B9847312201A93000A8470A20C4
S1130900A047082201A93000A847DC20A04724B052
S113091070BDC04602000800020009003C0100202E
S11309205509000000080042D10E000000E100E07B
S11309306D10000080440041F507000060210000B4
S113094060010020D90B0000411000008421000048
S113095035210000F0B5DE4657464E464546E0B523
S11309608DB005000C00160029600800804B9847E4
S1130970020023680520DB0706D50DB03CBC904679
S11309809946A246AB46F0BD236817309B07F4D4C2
S11309907849086A971C0123BB4003430B620BA9E7
S11309A0737F0B700D32D7B23800734B9847380001
S11309B0724B9847707F0021714B9847F37A6B71A3
S11309C0337DAB71737DEB712B6898461800684BCF
S11309D098470D3000220E2302A98C4663441A80E6
S11309E033680393F3689A46B37D9B4673689946CC
S11309F0002B14D080235B05994530D1F37D002B67
S1130A0031D133691F00C0B25E4B984701000E22FA
S1130A1002AB9C46624438005B4B984720E0F37D70
S1130A20002B0BD01023009300230E2202A98C4626
S1130A306244B1693069554FB84711E033691F000A
S1130A40C0B2504B984701001023009300230E229C
S1130A5002A88446624438004C4FB84700E00020A6
S1130A60002800D089E72A68039F138A1BB2002B51
S1130A70FBDB0E2302AA944663441B88424653813F
S1130A8053461F434B461F435B465B071F43F37D9F
S1130A90002B01D104331F43317D4904737D1B04B2
S1130AA00B43B17AF27A114319433389FF2B03D0F4
S1130AB08022520417431943337F002B03D1344B54
S1130AC09B789B0701D580231F432A68138A1BB296
S1130AD0002BFBDB434659602A68138A1BB2002BA8
S1130AE0FBDB43461F600AAB80221A7000225A7057
S1130AF0DA709A70336A0693736A0793B36A089339
S1130B00F36A03930993002706AE06E02000214B05
S1130B10984707E00137042F0DD0F9B2BB0098596C
S1130B200028F3D0431CF5D00AA90870000CC0B209
S1130B30194B9847EEE70023AB60EB602B61AB6188
S1130B406B610022EB83AB832033EA540133EA5414
S1130B500133EA540133EA542868054B98470400EA
S1130B600E490F4B9847A4000E4BE550002004E7B4
S1130B70A90500000004004035150000A914000078
S1130B80E503000051150000270300005103000095
S1130B9000200041310400002D1600006D0D0000FE
S1130BA0950E0000DC010020C2791C23002A01D12B
S1130BB018007047C28B92B2173B002AF8D1026822
S1130BC0138A1BB2002BFBDB11830221937B0B42A4
S1130BD0FCD00023ECE70000F0B5CE46474680B5D4
S1130BE083B0050001911720002A04D103B00CBC86
S1130BF090469946F0BDEB790530002BF6D02C6871
S1130C00238A1BB2002BFBDB013A93B299460026E0
S1130C100127204B984611E0731C9BB2019A915D09
S1130C206A79012A17D089B21E0028001A4B984706
S1130C304B46013B9BB29946434513D0A37B3B42B1
S1130C40EAD1144BA27B3A42E6D1012B19D0013BE5
S1130C50002BF7D1E0E70236B6B2019AD35C1B024F
S1130C601943E2E7A37B9B070DD40A4B0221A27B25
S1130C700A420AD1012B0AD0013B002BF7D10020F4
S1130C80B4E71220B2E70020B0E70020AEE712205C
S1130C90ACE7C046FFFF0000A90B0000F8B5060052
S1130CA00C00150007680A4B9847F38B9BB2002B86
S1130CB003D0084B98470520F8BDF583054B9847AA
S1130CC0B46105222323F254223B7B730020F3E713
S1130CD095100000D5100000F8B506000C001500B2
S1130CE007680A4B9847B38B9BB2002B03D0084B81
S1130CF098470520F8BDB583054B984774610522D4
S1130D002223F2541E3B7B730020F3E7951000006E
S1130D10D5100000931C9B001950202101239340FF
S1130D201A00435C134343547047000010B5172363
S1130D30002A01D1180010BDC4790533002CF9D064
S1130D40014B98470300F5E79D0C000010B51723ED
S1130D50002A01D1180010BD84790533002CF9D084
S1130D60014B98470300F5E7D90C0000F8B5800063
S1130D70464BC5582C68238A1BB2002BFBDBA37B94
S1130D80667B1E402023EB5C2122AF5C1F40F307EF
S1130D9022D5EB8B9BB2002B1CD0AA691378DBB253
S1130DA0511CA961697901290ED09BB2DB05DB0DC9
S1130DB02383EB8B013B9BB2EB83002B0CD10133E0
S1130DC023730133637307E0517809020B43023242
S1130DD0AA61EBE701232373B30706D50223237328
S1130DE000222133EA54FB0716D473074DD5AB8B8D
S1130DF09BB2002B47D0238ADBB25A0720D09A0734
S1130E000ED51A222223EA54203B23827B073CD5A9
S1130E102B692800984738E02800AB689847E4E736
S1130E205A0705D51E222223EA541E3B2382EDE7EE
S1130E30DB07EBD513222223EA54213B2382E5E787
S1130E40238BDB05DB0DDAB269690A706A69511C10
S1130E5069616979012910D0AB8B013B9BB2AB83EB
S1130E60002B12D10433237300221E33EA54BB0730
S1130E700BD5EB682800984707E01B0A53706B6991
S1130E8001336B61E8E704232373F8BDDC01002020
S1130E9070470000F0B50A4B1B78002B0CD1094FAA
S1130EA0094E0A4D0024DE515A1914600433182BDC
S1130EB0F9D10122024B1A708000024BC150F0BDDF
S1130EC06B0000206C000020910E0000DC0100206B
S1130ED000B583B007236A4613700133537001339E
S1130EE093700133D3700133137101335371034B86
S1130EF098476B46185603B000BDC046A9050000CC
S1130F0010B5024B1B680020984710BD6C000020F0
S1130F1010B5024B5B680120984710BD6C0000209F
S1130F2010B5024B9B680220984710BD6C0000204E
S1130F3010B5024BDB680320984710BD6C000020FD
S1130F4010B5024B1B690420984710BD6C000020AB
S1130F5010B5024B5B690520984710BD6C0000205A
S1130F601723002A01D0180070478B00064A9B58AB
S1130F70002B03D0834205D01D23F4E78900885059
S1130F800023F0E70023EEE7A40000201723002944
S1130F9001D01800704700221F2800D8024A0123FC
S1130FA08340D3600023F4E70018004070B50022AA
S1130FB0104B1A70002310491F25104E0D4C0AE0E7
S1130FC00D4908E023780133DBB223700F2B10D8CE
S1130FD000211F2BF4D928001840012282400869FF
S1130FE01042EFD00A619B009B59002BEAD098472E
S1130FF0E8E770BDF401002000180040A4000020C0
S113100070B50020084B98470500084CFA21890068
S1131010A047074B186007492800A047064B1860F3
S11310200522064B1A6070BD1D140000811F0000CC
S11310300000002040420F000400002010E000E007
S113104030B5084B1C68084A002580214902013844
S113105007D3002CFBD05460956013680B42FCD07E
S1131060F5E730BD0000002010E000E000B583B0DB
S113107001AB80221A700A785A704A789A708A787A
S1131080DA701900014B984703B000BD2D1600001B
S1131090704700000C4B1B68002B06D1EFF3108344
S11310A0002B07D00022094B1A70074A136801333A
S11310B01360704772B6BFF35F8F0022044B1A703F
S11310C00132024B1A70F0E78400002088000020EF
S11310D008000020084B1A68013A1A601B68002BAC
S11310E009D1064B1B78002B05D00122044B1A7042
S11310F0BFF35F8F62B67047840000208800002031
S11311000800002010B5072803D88000164B1B5890
S11311109F46002027E0154BD86824E0144B1B6A37
S11311209B059B0F1348D8401DE0104B18691AE02B
S11311300E4B1B6800209B0715D50D491022CB6868
S11311401A42FCD0094B1B685B0701D40A480AE029
S113115000200A4B9847054B9B681B041B0C584303
S113116001E08020000210BDB82100008C000020A6
S11311700008004000127A00006CDC0251150000E7
S113118070B50C490B6A04788578407801221040C8
S113119080014026B34303432A40D2018020834385
S11311A013430322224012020348034013430B62F9
S11311B070BDC04600080040FFFCFFFF072803D8AD
S11311C080001E4B1B589F46172036E01C4A136AAA
S11311D002210B43136200202FE0194A9369022174
S11311E00B439361002028E0154A138A02210B4324
S11311F01382002021E0124A938A02210B43938236
S113120000201AE00F4B1A6802210A431A601B6877
S11312100D4A13400A4A938411001022CB681A42E3
S1131220FCD0084A9168064BD962516899621268E9
S113123092B29A84002000E000207047D821000078
S1131240000800408C0000207FFF0000F0B585B04E
S1131250C222D200204B9A60204A53681E218B433D
S1131260536002236A46137000241D4DE0B26946A0
S1131270A84701341C2CF9D103A80024447001258B
S113128085700470174B98470620174B9847174BE7
S1131290984701956B465C701C725C7205236A4624
S11312A0137069460120124FB8470120114EB04710
S11312B0114B1C725C729C72DC7201956B465C7003
S11312C006236A4613701472547269460020B847A4
S11312D00020B04705B0F0BD0008004000400041C8
S11312E03515000081110000BD110000FD12000041
S11312F021130000D913000000040040064A93693A
S113130008210B4393610122044B1A7019000B78D6
S11313101342FCD17047C04600040040000C00405A
S113132070B5060004000D782D0205434B78002BA0
S113133002D08023DB021D434B7A002B02D0802392
S11313401B031D434868012810D9431E184234D199
S1131350022830D90223002201325B009842FBD8D4
S113136012023243140080235B031D430B7A002BCB
S113137002D080239B031D43134A53785BB2002B96
S1131380FBDB124B9847124B1E700F4A53785BB22B
S1131390002BFBDB0C4B9C601A0053785BB2002BD8
S11313A0FBDB094A5368802149020B401D43556009
S11313B0084B984770BD0022D2E7040234438023CF
S11313C09B021D43D2E7C046000C0040951000006C
S11313D0080C0040D510000010B504000B4A5378E7
S11313E05BB2002BFBDB0A4B98470A4B1C70074A85
S11313F053785BB2002BFBDB044A516880235B0209
S11314000B435360044B984710BDC046000C00408A
S113141095100000040C0040D510000070B50400C5
S11314201A4A53785BB2002BFBDB194B9847194BD4
S11314301C70164A53785BB2002BFBDB134E7068AA
S1131440C004C00E144B98470500124B1C707668FC
S1131450F602F60F114B1C700C4A53785BB2002B4A
S1131460FBDB0A4B9C682402240C0D4B9847002E8E
S113147007D1012C07D9210028000A4B9847050001
S113148001E00134E540280070BDC046000C004076
S113149095100000040C004005110000080C0040E9
S11314A0D5100000811F000010B50400064B9847BA
S11314B0064B1C70064A53888021C9010B43538094
S11314C0044B984710BDC04695100000020C004024
S11314D0000C0040D510000010B504000F4B9847D5
S11314E00F4B1C700F4A53881B05180F53880E4965
S11314F00B40538053880D490B40538011008022C8
S1131500D2014B881342FCD106494A88030206489B
S1131510024013434B80064B984710BD95100000C2
S1131520020C0040000C0040FFF0FFFFFFBFFFFF74
S1131530D510000010B50C7824020443024B9847E0
S1131540A4B2024B5C8010BDD9140000000C004012
S113155010B50400064B9847064B1C70064B5C887C
S11315602405240F054B98472000054B984710BDD0
S113157095100000020C0040000C0040D510000043
S11315801D14000030B5D378002B35D11378802B8F
S113159029D01B0680246402234354780225AC43DB
S11315A006D19478002C20D18024A40223434160E6
S11315B05478013C012C1CD90D042D0CA024E40505
S11315C02C431C4384620D0CD02424062C431C435E
S11315D08462D478002C22D15B031CD59378012B30
S11315E01ED0416117E00023D7E7C024E40223435F
S11315F0DDE70D4C2340DFE741600C04240CA023FD
S1131600DB05234383620C0CD0231B062343836234
S1131610D378002B03D15378013B012B02D930BD81
S11316208161F8E78160FAE7FFFFFBFF10B50A006C
S1131630C1090023002904D14309DB0105498C4673
S113164063441F242040012181401800024B984725
S113165010BDC046004400418515000070470000DD
S113166010B5054B9847054B9847054B9847054BD4
S11316709847054B984710BD4D120000911000008B
S11316805D1600001D0100005D160000FEE700006D
S113169010B51A4A1A4B9A4211D01A00194B9A42A1
S11316A00DD2194A03339B1A9B0801339B00002275
S11316B0134812498C58845004329A42FAD1134A7E
S11316C0134B9A420AD2D34311495B1803218B432B
S11316D004339B18002102C29342FCD10D4AFF211E
S11316E00D4B8B4393600D4A53687F390B43536012
S11316F00B4B98470B4B9847FEE7C046B4220000BB
S1131700000000204C000020040000204C000020B9
S1131710F801002000ED00E000000000004000415E
S1131720ED200000311F00007047000010B5174B7A
S1131730DB78DBB2512B16D00BD9812B1BD0C12BFC
S113174010D11349C123CB7014221248124B98476D
S113175008E0102B06D10E491023CB7014220D483B
S11317600D4B984710BD0A495123CB7014220948E8
S1131770094B9847F6E706498123CB7014220548A4
S1131780054B9847054B9847ECE7C046A801002055
S11317900C000020840100202D0D000081070000B2
S11317A0F0B5C64600B58EB002AB8022D2050292D7
S11317B000225A60FF2119819A72DA72FE39197572
S11317C059759A75DA759A611A775A779622D20101
S11317D01A61C4229203DA60012252421A625A62E6
S11317E02E4A9A622E4ADA622E4D2F4C02AA2F49B3
S11317F02800A0470028F9D12A4D2C6820002C4B42
S113180098471F2318401E3B83402A4A13602A68C6
S1131810138A1BB2002BFBDB2368022213432360D1
S1131820204C002224492000244DA84701222449A9
S11318302000A8472122A35C03210B43A35401AC3D
S1131840012363700026A6702370210036201D4DED
S1131850A8471D4B98468023DB0342469361C8206A
S11318601A4FB84721003720A84780231B0442465B
S113187053611E20B84721001520A84780229203F7
S1131880134B5A61267021001720A8472100162007
S1131890A8470EB004BC9046F0BDC0460200180034
S11318A002001900840100205509000000140042C0
S11318B0D10E000000E100E029170000150D000022
S11318C02D1700006D1000008044004141100000FD
S11318D00044004100290BD0020041180023107875
S11318E01B18DBB201328A42F9D15842C0B27047A8
S11318F00023FAE710B51F4B1A780C2A08D8930076
S11319001D4AD3589F4616221C491D481D4B984713
S113191010BD152219491A481A4B9847F8E71222A4
S113192016491748174B9847F2E7162213491448EB
S1131930144B9847ECE7182210491148114B98476B
S1131940E6E716220D490E480E4B9847E0E71522AC
S11319500A490B480B4B9847DAE71622074908480F
S1131960084B9847D4E7162204490548054B984785
S1131970CEE7C046A2000020F8210000200100208C
S1131980600100204D0D0000F8B5804B1A780C2A38
S11319901FD893007E4AD3589F467E4C0823A372D7
S11319A0651C0A2128007C4EB047E0720123237491
S11319B010336374794B1B78A37420000C30072117
S11319C0B047E07413232370132229007448754B25
S11319D09847F8BD6F4C0723A372651C0A212800A1
S11319E06D4FB847E07201232374122666742000F9
S11319F00C300621B847A0742670122229006848CA
S1131A00684B9847E5E7634C0723A372651C0A21DA
S1131A102800614EB047E0720123237414336374C9
S1131A2020000C300621B047A07412232370122228
S1131A3029005B485B4B9847CBE7564C0923A372BC
S1131A40651C0A212800544EB047E0720123237418
S1131A5012336374544B1B881A0AA274E374200073
S1131A600C300621B047207514232370142229005A
S1131A704B484C4B9847ACE7464C0723A372651C74
S1131A800A212800444EB047E07201232374133323
S1131A90637420000C300621B047A0741223237015
S1131AA0122229003E483F4B984792E7394C0723BE
S1131AB0A372651C0A212800374EB047E072012347
S1131AC023742033637420000C300621B047A074C3
S1131AD012232370122229003148324B984778E7A9
S1131AE02C4C0723A372651C0A2128002A4EB047F8
S1131AF0E072012323742133637420000C30062127
S1131B00B047A07412232370122229002448254BC5
S1131B1098475EE71F4C0A23A372651C0A2128001C
S1131B201D4EB047E07201232374303363740023E5
S1131B30A3741D4B1B881A0AE274237520000C3011
S1131B400621B04760751523237015222900144817
S1131B50144B98473DE70F4C0723A372651C0A21D9
S1131B6028000D4EB047E0720123237431336374AF
S1131B7020000C300621B047A074122323701222D7
S1131B8029000748074B984723E7C046A2000020D6
S1131B902C22000024000020D51800002100002081
S1131BA0600100202D0D0000A000002010B57B4B2B
S1131BB01A780C2A00D98BE09300794AD3589F46AF
S1131BC0784B1B7D002B00D082E00222734B1A70ED
S1131BD0754B98477CE0734B1B78F12B14D0714AFA
S1131BE052781F2A74D06F498978632930D86F4B93
S1131BF01B78062B39D00121684A117001336B4AD6
S1131C001370694B984763E0664A52781F2AEAD1F9
S1131C10644B1B7D002B07D0042B0BD001226149A0
S1131C206348644B984753E01B3A5E496048614BF4
S1131C3098474DE001225B495D485E4B9847C820B8
S1131C405D4B98470222554B1A70574B98473FE01B
S1131C500120564908701B021343584A138004227A
S1131C604E4B1A70504B984732E001224F4B1A707A
S1131C7002324A4B1A704C4B984729E0494B1B7D62
S1131C80002B25D10522454B1A70474B98471FE07E
S1131C90444B1B7D002B0AD00F2B0ED0042B17D1E5
S1131CA0C820454B984705223C4B1A7010E0182277
S1131CB03C494348434B98470AE018223949404875
S1131CC0404B984704E0162236493D483D4B98471F
S1131CD010BD0A22314B1A70334B9847F8E7314B49
S1131CE01B78F12B09D02F4B5B78002BF0D0072207
S1131CF02C492F482F4B9847EAE72A4B5B781F2B38
S1131D00E6D1284B5B7D002B09D00A2B0DD0042B88
S1131D1011D0012223492648264B9847D8E70722A9
S1131D2020492348234B9847D2E707221D492048DE
S1131D30204B9847CCE701221A491D481D4B984770
S1131D40C8201D4B98470A22144B1A70164B98470B
S1131D50BEE7144B1B78F12BBAD1124B5B781F2BC7
S1131D60B6D1104B1B7D002BB2D10C220B4B1A7039
S1131D700D4B9847ACE70B4B1B78F12BA8D1094BC3
S1131D805B781F2BA4D1074B1B7D002BA0D11622FF
S1131D9004490B480B4B98479AE7C046A200002021
S1131DA06022000020010020891900002100002089
S1131DB0600100204D0D000041100000A000002033
S1131DC0840100202D0D000010B580221201094B62
S1131DD0DA61094B1B78002B05D10922074B1A70D5
S1131DE0074B984710BD0122044B1A70044B9847C7
S1131DF0F8E7C04680440041A3000020A200002070
S1131E008919000070B590B00DAD2800374B984784
S1131E1010230D9300246C6001262E720E3BEB728E
S1131E2029000020324B9847002200213148324BD0
S1131E30984700210020314B984701AB8022D205FE
S1131E4001925C60FF221A819C72DC721E755E75C1
S1131E509C75DC759C611C775C77E12252021A61E7
S1131E60C4229203DA60012252421A625A62244A5C
S1131E709A62244ADA62244D244C01AA2449280097
S1131E80A0470028F9D1204D2C682000214B984709
S1131E901F2318401E3B83401F4A13602A68138A7D
S1131EA01BB2002BFBDB2368022213432360164C76
S1131EB000221A4920001A4DA8470122194920007E
S1131EC0A8472122A35C03210B43A35401236A46A0
S1131ED05370002269468A700B701120124B984788
S1131EE080229202114B9A6110B070BD89010000EA
S1131EF09D010000C91D0000610F00008D0F00004E
S1131F0002001200020013006001002055090000C5
S1131F10000C0042D10E000000E100E0F5180000C2
S1131F20150D0000AD1B00006D10000000440041C1
S1131F3010B50A4B98470A4B98470A4B9847962086
S1131F404000094B9847094B9847094B9847094B60
S1131F509847094B9847094B9847FEE761160000DC
S1131F60E10600000110000041100000051E000001
S1131F70A1170000210800002D07000081070000C0
S1131F80002243088B4274D303098B425FD3030AB4
S1131F908B4244D3030B8B4228D3030C8B420DD3C7
S1131FA0FF22090212BA030C8B4202D31212090255
S1131FB065D0030B8B4219D300E0090AC30B8B4293
S1131FC001D3CB03C01A5241830B8B4201D38B0341
S1131FD0C01A5241430B8B4201D34B03C01A5241E6
S1131FE0030B8B4201D30B03C01A5241C30A8B4229
S1131FF001D3CB02C01A5241830A8B4201D38B0214
S1132000C01A5241430A8B4201D34B02C01A5241B7
S1132010030A8B4201D30B02C01A5241CDD2C30929
S11320208B4201D3CB01C01A524183098B4201D3A5
S11320308B01C01A524143098B4201D34B01C01A90
S1132040524103098B4201D30B01C01A5241C30808
S11320508B4201D3CB00C01A524183088B4201D377
S11320608B00C01A524143088B4201D34B00C01A63
S11320705241411A00D20146524110467047FFE7CF
S113208001B5002000F006F802BDC0460029F7D0D3
S113209076E770477047C046F0B5CE46474615040C
S11320A02D0C2E0080B50704140C3F0C9946030C2C
S11320B07E435D43674363437F19340CE4199C46B4
S11320C0A54203D980235B029846C4444B4651433E
S11320D043433604360C250C24046544A4195918CA
S11320E0491920000CBC90469946F0BD70B50026F5
S11320F00C4D0D4C641BA410A64209D1002600F01F
S1132100C9F80A4D0A4C641BA410A64205D170BD3F
S1132110B300EB5898470136EEE7B300EB58984705
S11321200136F2E7A0220000A0220000A022000055
S1132130A4220000002310B59A4200D110BDCC5C4B
S1132140C4540133F8E7000000080042000C0042C8
S1132150001000420014004200180042001C00421B
S113216041542B43574A41505F4445463D22544510
S1132170535453534944222C2231323334313233B1
S113218034220A0041542B534156455452414E5374
S11321904C494E4B3D312C223139322E3136382EBA
S11321A0312E3230222C313030312C225443502203
S11321B02C31300A0000000016110000121100003A
S11321C01211000062110000621100002A110000C7
S11321D01C11000030110000E8110000C8110000BB
S11321E0C811000038120000DA110000F6110000D6
S11321F0CC110000041200001019000006190000A0
S1132200121900001E1900002A19000036190000D6
S113221010190000101900001019000042190000E4
S11322204E1900005A19000066190000D219000066
S11322309A190000D4190000061A00003A1A000086
S1132240781A0000D2190000D2190000D219000037
S1132250AC1A0000E01A0000141B0000561B00001A
S1132260D01C0000C01B0000D61B0000C61C0000D0
S11322707C1C0000901C0000D01C0000D01C00003E
S1132280D01C0000D21C0000DE1C0000521D000007
S1132290761D0000F8B5C046F8BC08BC9E467047E1
S11322A0CD000000F8B5C046F8BC08BC9E46704797
S10722B0A500000081
S11322B4401F0000080000000100000014AA558219
S11322C4848586878895969798A5A6A7A8B5B6B752
S11322D4B801000012F11FE22EB66BA88A0007862B
S11322E4000000000121DE00A5A6A7A8B5B6B7B872
S10F22F4000000000000000000000000DA
S903169155
